:020000040800F2
:10000000780700209D830008458200084782000889
:10001000498200084B8200084D8200080000000061
:100020000000000000000000000000004F820008F7
:100030005182000800000000538200085582000829
:10004000E7830008EB830008EF830008F3830008D0
:10005000F7830008FB830008FF830008038400087F
:10006000078400080B8400080F840008138400082C
:10007000178400081B8400081F84000823840008DC
:10008000278400082B8400082F840008338400088C
:10009000378400083B8400083F840008438400083C
:1000A000478400084B8400084F84000853840008EC
:1000B000578400085B8400085F840008638400089C
:1000C000678400086B8400086F840008738400084C
:1000D000778400087B8400087F84000883840008FC
:1000E000878400088B8400088F84000893840008AC
:1000F000978400089B8400089F840008A38400085C
:10010000A7840008AB840008AF840008B38400080B
:10011000B7840008BB840008BF8400085D82000823
:10012000C3840008C7840008CB840008CF8400087B
:10013000D3840008D7840008DB840008DF8400082B
:10014000E3840008E7840008EB840008EF840008DB
:10015000F3840008F7840008FB840008FF8400088B
:1001600003850008078500080B8500080F85000837
:1001700013850008178500081B8500080000000093
:100180001F8500082385000880B501F06BFF02F091
:1001900098F81249087002F07BF81149087000F0D5
:1001A00023F802F014FA02F0F8FB02F0A2FC02F0CD
:1001B0002FFE02F043FE02F03BFA02F0C8FB03F010
:1001C0003DF801BD074908807047064800880028AF
:1001D00001D0012000E000207047000072030020E1
:1001E000730300205C03002080B5FFF7EEFF0028BA
:1001F00006D0DFF8F4090088401EDFF8EC1908800B
:10020000DFF8E8090078002800F09D81012800F05F
:10021000A781022800F0F082032800F00083042860
:1002200000F01183052800F02883062800F03983A8
:10023000072800F056830A2800F0C2830B2800F03C
:10024000CB830C2800F0D8830D2800F0EC830E2817
:1002500000F0A0810F2800F0AF81102800F0C181CC
:10026000112800F03282122800F06282132800F078
:100270005283142800F07283152800F08483162816
:1002800000F0F884172800F0EB83182800F0F483BE
:10029000192800F000841A2800F017841B2800F0A9
:1002A00034841C2800F043841D2800F051841E284B
:1002B00000F065841F2800F07B84202800F0A284D1
:1002C000212800F0C084222800F0E784242800F0D0
:1002D000F684252800F01185262800F0218527289E
:1002E00000F03085282800F05185292800F0748519
:1002F0002A2800F091852B2800F0B3852C2800F0E7
:10030000D1852D2800F0E1852F2800F0FB853028CD
:1003100000F01E82312800F02E82322800F0028682
:10032000332800F01F86342800F03286352800F08C
:100330003F86362800F06186372800F07686382818
:1003400000F08386392800F098863A2800F0AE86BF
:100350003B2800F0BE863C2800F0D3863D2800F004
:10036000E9863E2800F0FA863F2800F017874028EB
:1003700000F02B87422800F03A87432800F05F877F
:10038000442800F06F87452800F08E87462800F04B
:10039000A987482800F0DB87492800F0BB874A2856
:1003A00000F0ED874B2801F02D804C2801F04A80A9
:1003B0004D2801F05D804E2801F069804F2800F043
:1003C000F087502801F0A080512801F08580522844
:1003D00001F0A980532801F0BD80542801F0D3809A
:1003E000552801F0E280562801F0F680572801F0E8
:1003F0001B81582801F03281592801F04A815A287E
:1004000001F05C815B2801F0B981602801F0D8819E
:10041000612801F0F881622801F00E82632801F062
:100420001A82642801F03E82652801F05482662811
:1004300001F06B82672801F08182682801F09082C8
:10044000692801F09C826A2801F0C0826B2801F0C3
:10045000DD826C2801F0EC826D2801F009836E28A2
:1004600000F0BC876F2800F0C187702801F03F8141
:10047000712801F05281722801F06D81732801F01A
:100480000383742801F02183752801F034837628D2
:1004900001F04083772801F06183782801F07683AA
:1004A000792801F082837A2801F0A3837B2801F068
:1004B000B2837C2801F0CC837D2801F0E0837E2884
:1004C00001F0F1837F2801F00684802801F00F8479
:1004D000812801F01A84822801F03584832801F0F4
:1004E0004584872801F05A84892801F067848A2886
:1004F00001F07E848B2801F08C848C2801F0A68486
:100500008D2801F0BF848E2801F0D2848F2801F05D
:10051000EB84902801F00185912801F0168592283E
:1005200001F02985932801F03185942801F04B854D
:10053000952801F05985962801F070859B2801F0D7
:10054000778501F077BD022002F058FC0120DFF82A
:10055000C01C08700120DFF89416087001F06ABD15
:100560004021DFF8B00C03F0ADF800280ED10121D6
:10057000DFF8A40C03F0A6F8002807D1022002F04F
:100580003DFC0220DFF86416087001E001F07CFEFB
:1005900001F050BDFFF719FE00280BD1022002F038
:1005A0002DFC02F08FFA0A20FFF70CFE0F20DFF877
:1005B0003C16087001F03EBDFFF707FE00280ED183
:1005C000022002F01BFCDFF828060078042802D085
:1005D000E62003F0C5F81020DFF81016087001F0CF
:1005E00029BDDFF80C060078042803D00120DFF8CD
:1005F0002C1C0870DFF8F8050078012814D1402180
:10060000DFF81C0C03F05EF8012809D1022002F08B
:10061000F5FB02F057FA1120DFF8D015087052E010
:10062000002001F086FF4EE0DFF8C40500780228C4
:1006300014D11021DFF8DC0B03F044F8012809D1B4
:10064000022002F0DBFB02F03DFA1120DFF89C15DE
:10065000087038E0002001F06CFF34E0DFF890050E
:100660000078042814D14021DFF8B40B03F02AF8F5
:10067000012809D1022002F0C1FB02F023FA112067
:10068000DFF8681508701EE0002001F052FF1AE044
:100690004021DFF88C0B03F015F8012806D010215B
:1006A000DFF8700B03F00EF8012809D1022002F0E8
:1006B000A5FB02F007FA1120DFF83015087002E000
:1006C000002001F036FF01F0B5BCDFF8500B0078D8
:1006D00000282BD10120DFF81C150870DFF8180561
:1006E00003F077F8DFF808050078002806D0022824
:1006F0000ED008D3042815D00FD317E01320DFF84D
:10070000EC14087012E01620DFF8E01408700DE019
:100710004020DFF8D814087008E07020DFF8CC140F
:10072000087003E08720DFF8C414087001F082BC71
:10073000DFF8E80A0078002808D1022002F05EFB0A
:1007400002F0C0F93020DFF8A414087001F072BC88
:10075000DFF8BC0A007800280BD10220DFF89414DF
:100760000870DFF8940403F034F83120DFF87C14CB
:10077000087001F05FBC022002F040FB0121002064
:1007800003F01EFC40F2E731012003F019FC8C203D
:10079000FFF718FDDFF858040078002806D002287B
:1007A00011D008D304281ED015D323E01720DFF87A
:1007B0003C1408701EE03220DFF8301408708220EC
:1007C00002F0CEFF16E04B20DFF8201408708220E4
:1007D00002F0C6FF0EE07320DFF8101408708220CC
:1007E00002F0BEFF06E09B20DFF8001408708220B4
:1007F00002F0B6FF01F01EBC1021DFF81C0A02F067
:1008000061FF012807D1022002F0F8FA0320DFF887
:10081000DC13087001E001F037FD01F00BBCDFF8DC
:100820008C0C007803280ADB022002F0E7FA0A2089
:10083000FFF7C8FC0420DFF8B413087001E001F0F2
:1008400023FD01F0F7BBFFF7C0FC002811D1042104
:10085000DFF8CC0902F036FF012807D1022002F0B0
:10086000CDFA0520DFF88413087004E001F00CFDD8
:1008700001E001F009FD01F0DDBBDFF8300C00788C
:1008800003280ADB022002F0B9FA0A20FFF79AFCDB
:100890000620DFF85813087001E001F0F5FC01F0C4
:1008A000C9BBFFF792FC002817D10421DFF86809C3
:1008B00002F008FF01280DD1022002F09FFA01206A
:1008C000DFF8EC1B08701420FFF77CFC0720C749F9
:1008D000087004E001F0D8FC01E001F0D5FC01F063
:1008E000A9BBFFF772FC002813D1DFF824090078B8
:1008F00000280ED1022002F081FA032001F033FE1D
:100900005F20FFF75FFC0020B94908700E20B7494F
:10091000087001F08FBB0421DFF8040902F0D2FE59
:10092000012806D01021DFF8F00802F0CBFE0128E4
:100930000FD1022002F062FA0220DFF8D41808700A
:1009400002F0C0F83220FFF73DFC1420A7490870E0
:1009500002E0012001F0D3FD01F06CBBFFF735FC94
:1009600000280ED10121002003F02AFB40F2E731DC
:10097000012003F025FB9620FFF724FC15209B495E
:10098000087001F057BBFFF720FC002816D10421A6
:10099000DFF8840802F096FE012806D00421DFF873
:1009A000740802F08FFE012806D1022002F026FA18
:1009B0000A208E49087001E001F066FC01F03ABBA4
:1009C000022002F01BFA0120DFF8501808700B20FB
:1009D0008649087001F02EBBDFF840080078002837
:1009E00008D1022002F00AFA6420FFF7EBFB0C208A
:1009F0007E49087001F01EBBFFF7E7FB00280ED10F
:100A0000DFF8A80A0078032806DB022002F0F6F9D6
:100A10000D207649087004E001F036FC01E001F099
:100A200033FC01F007BB0421DFF8EC0702F04AFEBB
:100A3000012806D00421DFF8DC0702F043FE01287C
:100A40000AD1022002F0DAF90120DFF8D01708708D
:100A500012206649087001E001F016FC01F0EABAC4
:100A6000FFF7B3FB002805D1022002F0C7F91820D8
:100A70005E49087001F0DEBAB420FFF7A3FB8220C4
:100A800002F06EFE0120DFF8881708701920574920
:100A9000087001F0CFBAFFF798FB002811D1DFF8FA
:100AA0000C0A0078032809DB022002F0A7F90A20CB
:100AB000FFF788FB1A204D49087004E001F0E4FBC1
:100AC00001E001F0E1FB01F0B5BAFFF77EFB002881
:100AD00017D10421DFF8400702F0F4FD01280DD101
:100AE000022002F08BF90120DFF8C41908701420ED
:100AF000FFF768FB1B203D49087004E001F0C4FBD0
:100B000001E001F0C1FB01F095BAFFF75EFB0028A0
:100B10000BD1022002F072F9032001F024FD5720CE
:100B2000FFF750FB1C203149087001F083BAFFF732
:100B30004CFB00280AD1022002F060F901F0C2FF4C
:100B40000A20FFF73FFB1D202849087001F072BA08
:100B5000FFF73BFB002810D1DFF85009007803288D
:100B600009DB022002F04AF90A20FFF72BFB1E20C6
:100B70001E49087001E001F087FB01F05BBAFFF746
:100B800024FB002810D11021DFF88C0602F09AFD1A
:100B9000012806D1022002F031F91F201349087004
:100BA00004E001F071FB01E001F06EFB01F042BADC
:100BB000DFF8140A8079DFF8141A898980B2884234
:100BC00008D2DFF8040AC079DFF8001AC98980B2B8
:100BD000884213D3022002F011F90A20FFF7F2FA3B
:100BE0002020024908700BE05C0300207003002005
:100BF00071030020640300204402002001F044FB44
:100C000001F018BAFFF7E1FA002818D10421DFF843
:100C1000100602F057FD01280ED1022002F0EEF876
:100C20000120DFF88C1808701420FFF7CBFA212080
:100C3000DFF89C19087004E001F026FB01E001F0E8
:100C400023FB01F0F7B9FFF7C0FA002810D102200A
:100C500002F0D4F8022001F086FC5F20FFF7B2FA20
:100C60000120DFF8701908700E20DFF86419087091
:100C700001F0E0B9022002F0C1F80220DFF890157F
:100C80000870022001F06FFC5F20FFF79BFA222022
:100C9000DFF83C19087001F0CDB9FFF796FA00288B
:100CA0000BD1022002F0AAF801F00CFF0A20FFF796
:100CB00089FA2420DFF81819087001F0BBB9FFF792
:100CC00084FA002817D10421DFF84C0502F0FAFC61
:100CD00001280ED1022002F091F80120DFF8D01790
:100CE00008701420FFF76EFA2520DFF8E41808706A
:100CF00001E001F0C9FA01F09DB9FFF766FA00289A
:100D00000CD1022002F07AF8022001F02CFC5F20C6
:100D1000FFF758FA2620DFF8B818087001F08AB9F2
:100D2000FFF753FA00280BD1022002F067F801F018
:100D3000C9FE0A20FFF746FA2720DFF8941808704A
:100D400001F078B9FFF741FA00281DD14021DFF802
:100D5000D00402F0B7FC012806D01021DFF8B4045B
:100D600002F0B0FC01280DD1022002F047F801F09A
:100D7000A9FE0120DFF8A41408702820DFF850181D
:100D8000087001E001F080FA01F054B9DFF88C043A
:100D9000007800281ED1DFF830080078DFF82C1822
:100DA000098880B2884208D2DFF81C084078DFF852
:100DB0001C18498880B288420AD3022002F01EF82B
:100DC0000A20FFF7FFF92920DFF80418087001E076
:100DD00001F05AFA01F02EB9FFF7F7F9002817D100
:100DE0001021DFF8340402F06DFC01280DD102203F
:100DF00002F004F8022001F0B6FB1420FFF7E2F93C
:100E00002A20DFF8CC17087004E001F03DFA01E079
:100E100001F03AFA01F00EB9FFF7D7F900281ED118
:100E2000DFF8A4070078DFF8A417098880B28842A9
:100E300008D2DFF894074078DFF89017498880B22D
:100E400088420AD3022001F0D9FF0A20FFF7BAF93D
:100E50002B20DFF87C17087001E001F015FA01F093
:100E6000E9B8FFF7B2F9002818D10421DFF8A4038C
:100E700002F028FC01280ED1022001F0BFFF012062
:100E8000DFF82C1608701420FFF79CF92C20DFF8EF
:100E90004017087004E001F0F7F901E001F0F4F9FF
:100EA00001F0C8B8FFF791F900280CD1022001F039
:100EB000A5FF032001F057FB5720FFF783F92D20F2
:100EC000DFF80C17087001F0B5B8FFF77EF90028BD
:100ED00016D14021DFF8480302F0F4FB012805D0C9
:100EE0001021CC4802F0EEFB012807D1022001F0CE
:100EF00085FF2F20DFF8D816087001E001F0C4F953
:100F000001F098B8C2480078002809D1022001F009
:100F100075FF0120C14908701220DFF8B41608706F
:100F200001F088B80421BC4802F0CCFB012805D0B0
:100F30000421B84802F0C6FB01280ED1022001F0BE
:100F40005DFF0120DFF8681508701420FFF73AF9FB
:100F50003320DFF87C16087002E0002001F0E9FA87
:100F600001F068B8FFF731F900280FD1022001F035
:100F700045FF0120A6490870032001F0F4FA5F2024
:100F8000FFF720F93420DFF84816087001F052B856
:100F9000FFF71BF9002809D1022001F02FFF3220B2
:100FA000FFF710F93520DFF82816087001F042B875
:100FB000FFF70BF900281CD1DFF80C068079DFF869
:100FC0000C16898980B2884208D2DFF8FC05C07906
:100FD000DFF8F815C98980B2884207D3022001F0F2
:100FE0000DFF3620DFF8E815087004E001F04CF939
:100FF00001E001F049F901F01DB80421884802F030
:1010000061FB01280DD1022001F0F8FE032001F060
:10101000AAFA1420FFF7D6F83720DFF8B4150870C5
:1010200001E001F031F901F005B8FFF7CEF8002832
:1010300009D1022001F0E2FE3220FFF7C3F8382088
:10104000DFF88C15087000F0F5BFFFF7BEF8002838
:101050000FD1DFF858040078032807DB022001F0E5
:10106000CDFE3920DFF86815087004E001F00CF9B6
:1010700001E001F009F900F0DDBF0421664802F04B
:1010800021FB01280ED1022001F0B8FE0120DFF87B
:10109000201408701420FFF795F83A20DFF8301577
:1010A000087001E001F0F0F800F0C4BFFFF78DF820
:1010B00000280CD1022001F0A1FE022001F053FA19
:1010C0005720FFF77FF83B20DFF80415087000F089
:1010D000B1BFFFF77AF8002811D1DFF8D00300780C
:1010E00003280ADB022001F089FE0A20FFF76AF8D4
:1010F0003C20DFF8DC14087001E001F0C5F800F0D6
:1011000099BFFFF762F8002810D10421424802F08D
:10111000D9FA012807D1022001F070FE3D20DFF846
:10112000B014087004E001F0AFF801E001F0ACF891
:1011300000F080BFDFF87403007803280ADB022088
:1011400001F05CFE0A20FFF73DF83E20DFF8801436
:10115000087001E001F098F800F06CBFFFF735F877
:10116000002817D104212B4802F0ACFA01280ED137
:10117000022001F043FE0120DFF834130870142030
:10118000FFF720F83F20DFF84814087004E001F072
:101190007BF801E001F078F800F04CBFFFF715F89C
:1011A000002810D1022001F029FE032001F0DBF914
:1011B0005720FFF707F80220DFF8181408700E20F8
:1011C000DFF80C14087000F035BF022001F016FEA5
:1011D00002200F490870032001F0C5F95720FEF7DF
:1011E000F1FF4220DFF8E813087000F023BFFEF79C
:1011F000ECFF002821D10421064802F063FA0128FF
:1012000019D1022001F0FAFD0120A9490AE000BF2E
:10121000650300200000024000080240680300202F
:101220000010024008701420FEF7CCFF4320DFF8C6
:10123000A013087001E001F027F800F0FBBEFEF7F4
:10124000C4FF00280CD1022001F0D8FD032001F0DA
:101250008AF95F20FEF7B6FF4420DFF874130870A8
:1012600000F0E8BEFEF7B1FF00281BD10421DFF833
:10127000940C02F027FA012806D00421DFF8880C2C
:1012800002F020FA01280BD1022001F0B7FD012065
:10129000DFF8781C08704520DFF83413087001E08F
:1012A00000F0F2FF00F0C6BEDFF8600C0078002806
:1012B00016D1C5488079C549898980B2884206D24D
:1012C000C148C079C149C98980B2884206D3022089
:1012D00001F094FD4620BE49087001E000F0D4FF03
:1012E00000F0A8BE0421DFF8280C02F0EBF9012879
:1012F0000CD1022001F082FD032001F034F9162008
:10130000FEF760FF4920B249087001E000F0BCFF21
:1013100000F090BEFEF759FF002816D1AA48807948
:10132000AA49898980B2884206D2A748C079A749CC
:10133000C98980B2884206D3022001F05FFD4820AF
:10134000A349087001E000F09FFF00F073BE042184
:10135000DFF8B00B02F0B6F901280CD1022001F041
:101360004DFD0120524908701420FEF72BFF4A2042
:101370009749087001E000F087FF00F05BBEFEF7C0
:1013800024FF00280BD1022001F038FD022001F0DB
:10139000EAF85720FEF716FF4F208D49087000F03D
:1013A00049BEFEF712FF002816D10421DFF8540BC6
:1013B00002F088F9012806D00421DFF84C0B02F076
:1013C00081F9012806D1022001F018FD6E20804924
:1013D000087001E000F058FF00F02CBE022001F080
:1013E0000DFD6F207A49087000F024BE022001F044
:1013F00005FD0120DFF8141B0870122074490870E5
:1014000000F018BE0421DFF8FC0A02F05BF90128A5
:1014100006D00421DFF8F00A02F054F901280CD1BB
:10142000022001F0EBFC0120214908701420FEF796
:10143000C9FE4C206649087002E0002001F079F8EE
:1014400000F0F8BDFEF7C1FE00280FD1022001F028
:10145000D5FC0120DFF8E01B0870022001F083F8C2
:101460005F20FEF7AFFE4D205949087000F0E2BD45
:10147000FEF7ABFE002808D1022001F0BFFC1E20C1
:10148000FEF7A0FE4E205249087000F0D3BDFEF7D3
:101490009CFE00281CD14C4800784C49098880B239
:1014A00088420BD248484078484903E07303002043
:1014B0006A030020498880B2884206D3022001F0E6
:1014C0009DFC51204249087004E000F0DDFE01E07F
:1014D00000F0DAFE00F0AEBD1021DFF8280A02F0BD
:1014E000F1F801280CD1022001F088FC022001F063
:1014F0003AF81620FEF766FE50203549087001E0E4
:1015000000F0C2FE00F096BDFEF75FFE002808D195
:10151000022001F073FC3220FEF754FE52202C49C9
:10152000087000F087BDFEF750FE00280ED1DFF8EE
:101530000C0B0078032806DB022001F05FFC53202F
:101540002349087004E000F09FFE01E000F09CFEDB
:1015500000F070BD0421DFF8AC0902F0B3F80128F7
:101560000DD1022001F04AFC0120DFF8D41A0870E6
:101570001420FEF727FE54201549087001E000F002
:1015800083FE00F057BDFEF720FE00280BD102209D
:1015900001F034FC032000F0E6FF5720FEF712FEB6
:1015A00055200B49087000F045BDFEF70EFE0028DF
:1015B00008D1022001F022FC1E20FEF703FE562077
:1015C0000349087000F036BD1800002034030020E5
:1015D0007003002071030020FEF7F7FD00281FD1E3
:1015E000DFF8600A0078DFF8601A098880B2884264
:1015F00008D2DFF8500A4078DFF84C1A498880B2E8
:1016000088420AD3022001F0F9FB0A20FEF7DAFD36
:101610005720DFF8381A087004E000F035FE01E0CA
:1016200000F032FE00F006BDFEF7CFFD002811D11C
:101630000421DFF8D40802F045F8012807D1022080
:1016400001F0DCFB5820DFF8041A087004E000F019
:101650001BFE01E000F018FE00F0ECBC4FF400416E
:10166000DFF8EC0902F02EF800280ED1022001F07C
:10167000C5FB0120DFF8C81908701420FEF7A2FD91
:101680005920DFF8C819087001E000F0FDFD00F0F6
:10169000D1BCFEF79AFD00280ED1DFF89C09007836
:1016A000002809D1022000F05EFF5720FEF78AFDD6
:1016B0005A20DFF89819087000F0BCBCFEF785FDD1
:1016C000002812D10421DFF8480801F0FBFF0128AF
:1016D00008D10320DFF87C1908700E20DFF86C19A0
:1016E000087002E0002000F024FF00F0A3BC0220FC
:1016F00001F084FB822002F033F80220DFF8381971
:101700000870032000F02FFF5720FEF75BFD7120CB
:10171000DFF83819087000F08DBCFEF756FD002880
:1017200017D10421DFF8E00701F0CCFF01280ED12A
:10173000022001F063FB0120DFF804190870142077
:10174000FEF740FD7220DFF80419087001E000F098
:101750009BFD00F06FBCFEF738FD00280CD1022085
:1017600001F04CFB032000F0FEFE5F20FEF72AFD97
:101770005B20DFF8D818087000F05CBCFEF725FD90
:1017800000281BD10421DFF87C0701F09BFF012812
:1017900006D00421DFF8700701F094FF01280BD177
:1017A000022001F02BFB0120DFF860170870602099
:1017B000DFF89818087001E000F066FD00F03ABC10
:1017C000DFF84807007800281BD1DFF87808007898
:1017D000DFF87418098880B2884208D2DFF86408FC
:1017E0004078DFF86418498880B2884207D3022025
:1017F00001F004FB6120DFF85418087001E000F0EC
:1018000043FD00F017BC1021DFF8F80601F05AFF85
:1018100001280DD1022001F0F1FA022000F0A3FE10
:101820001420FEF7CFFC6220DFF82018087001E0DA
:1018300000F02AFD00F0FEBBFEF7C7FC002809D12E
:10184000022001F0DBFA1420FEF7BCFC6320DFF875
:10185000FC170870EEE3FEF7B8FC00281FD1DFF894
:10186000E4070078DFF8E017098880B2884208D2E0
:10187000DFF8D0074078DFF8D017498880B2884277
:101880000AD3022001F0BAFA1420FEF79BFC642070
:10189000DFF8B817087004E000F0F6FC01E000F093
:1018A000F3FCC7E3FEF791FC002811D10421DFF817
:1018B000580601F007FF012807D1022001F09EFA27
:1018C0006520DFF88817087004E000F0DDFC01E017
:1018D00000F0DAFCAEE3DFF86C070078DFF8681799
:1018E000098880B2884208D2DFF858074078DFF8CC
:1018F0005817498880B2884206D3022001F07EFA48
:101900006620DFF84817087094E31021DFF8F4052B
:1019100001F0D8FE01280ED1022001F06FFA01205B
:10192000DFF81C1708701420FEF74CFC6720DFF866
:101930001C17087001E000F0A7FC7BE3FEF745FCF4
:1019400000280CD1022001F059FA032000F00BFE10
:101950004620FEF737FC6820DFF8F016087069E3D0
:10196000FEF733FC002809D1022001F047FA3220AB
:10197000FEF728FC6920DFF8D41608705AE3FEF75A
:1019800024FC00281FD1DFF8BC068079DFF8B816E8
:10199000898980B2884208D2DFF8A806C079DFF8CA
:1019A000A816C98980B288420AD3022001F026FA1B
:1019B0001420FEF707FC6A20DFF89016087004E098
:1019C00000F062FC01E000F05FFC33E3FEF7FDFB9A
:1019D000002818D10421DFF8300501F073FE01283A
:1019E0000ED1022001F00AFA0120DFF85416087027
:1019F0001420FEF7E7FB6B20DFF85016087004E0B8
:101A000000F042FC01E000F03FFC13E3FEF7DDFBD9
:101A100000280CD1022001F0F1F9032000F0A3FD11
:101A20005F20FEF7CFFB6C20DFF82016087001E383
:101A3000FEF7CBFB00281AD10421DFF8C80401F01F
:101A400041FE012806D00421DFF8BC0401F03AFE73
:101A500001280AD1022001F0D1F98C2001F080FE8A
:101A60006D20DFF8E815087001E000F00DFCE1E200
:101A7000022001F0C3F90120DFF890140870122051
:101A8000DFF8C8150870D5E20421DFF8780401F00A
:101A900019FE012806D00421DFF86C0401F012FEC3
:101AA00001280ED1022001F0A9F90120DFF89015DC
:101AB00008701420FEF786FB7420DFF8901508707C
:101AC00002E0002000F035FDB4E2FEF77EFB0028C6
:101AD00010D1022001F092F90120DFF85C150870A6
:101AE000032000F040FD5F20FEF76CFB7520DFF85F
:101AF0005C1508709EE2FEF768FB002809D1022001
:101B000001F07CF93220FEF75DFB7620DFF83C1512
:101B100008708FE2FEF759FB00281CD1DFF824057E
:101B20008079DFF82415898980B2884208D2DFF8ED
:101B30001405C079DFF81015C98980B2884207D32F
:101B4000022001F05BF97720DFF80015087004E04F
:101B500000F09AFB01E000F097FB6BE20421DFF854
:101B6000B00301F0AFFD01280DD1022001F046F9CC
:101B7000022000F0F8FC4B20FEF724FB7820DFF871
:101B8000CC14087001E000F07FFB53E2FEF71DFB70
:101B9000002809D1022001F031F93220FEF712FBB2
:101BA0007920DFF8A814087044E2FEF70EFB002845
:101BB0001CD1DFF890048079DFF88C14898980B219
:101BC000884208D2DFF87C04C079DFF87C14C98928
:101BD00080B2884207D3022001F010F97A20DFF8A2
:101BE0006C14087004E000F04FFB01E000F04CFBC7
:101BF00020E20421DFF80C0301F064FD012807D185
:101C0000022001F0FBF87B20DFF84014087001E0AF
:101C100000F03AFB0EE2DFF82C048079DFF828149C
:101C2000898980B2884208D2DFF81804C079DFF8C9
:101C30001814C98980B2884207D3022001F0DEF867
:101C40007C20DFF80814087001E000F01DFBF1E1D2
:101C50000421AF4801F036FD01280DD1022001F02A
:101C6000CDF8032000F07FFC1420FEF7ABFA7D20B6
:101C7000DFF8D813087001E000F006FBDAE1FEF7A8
:101C8000A4FA00280ED1DFF8B4030078032807DB9C
:101C9000022001F0B3F87E20DFF8B013087001E0F5
:101CA00000F0F2FAC6E10421974801F00BFD01288B
:101CB0000ED1022001F0A2F80120DFF88413087091
:101CC0001420FEF77FFA7F20DFF88013087001E010
:101CD00000F0DAFAAEE1FEF778FA002806D1022029
:101CE00001F08CF88020DFF864130870A2E1022074
:101CF00001F084F8022000F036FC5720FEF762FA6B
:101D00008120DFF84813087094E1FEF75EFA00289E
:101D100018D14FF48041DFF8380301F0D3FC0028DC
:101D20000ED1022001F06AF80120DFF814130870C8
:101D30001420FEF747FA8220DFF81013087001E044
:101D400000F0A2FA76E1FEF740FA00280DD1DFF8A4
:101D5000E8020078002808D1032000F004FC572096
:101D6000FEF730FA8320B949087063E1FEF72DFAD7
:101D7000002812D11021634801F0A4FC012806D1EB
:101D80000420B44908700E20B049087005E0002016
:101D900000F0CFFBE62001F0E3FC4BE1022001F074
:101DA0002DF80220A4490870022000F0DCFB5F201F
:101DB000FEF708FA8920A54908703BE1FEF705FA0D
:101DC000002814D104214F4801F07CFC01280CD1DB
:101DD000022001F013F80120994908701420FEF741
:101DE000F1F98A209949087001E000F04DFA21E1EB
:101DF000FEF7EBF900280BD1022000F0FFFF0220D4
:101E000000F0B1FB5F20FEF7DDF98B208F490870F1
:101E100010E1FEF7DAF9002817D10421394801F062
:101E200051FC012805D00421374801F04BFC012862
:101E300009D1022000F0E2FF0120344908708C2013
:101E40008249087001E000F01FFAF3E02F480078A3
:101E5000002816D17B4880797B49898980B28842E5
:101E600006D27848C0797849C98980B2884206D3B9
:101E7000022000F0C3FF8D207449087001E000F0DB
:101E800003FAD7E00421224801F01CFC01280CD100
:101E9000022000F0B3FF032000F065FB1620FEF7E0
:101EA00091F98E206949087001E000F0EDF9C1E078
:101EB000FEF78BF9002816D162488079624989893A
:101EC00080B2884206D25F48C0795F49C98980B232
:101ED000884206D3022000F091FF8F205B490870F2
:101EE00001E000F0D1F9A5E00421064801F0EAFB89
:101EF00001280FD1022000F081FF90205349087083
:101F00000AE000BF00080240000002406803002011
:101F10000010024000F0B8F98CE04A4880794A4944
:101F2000898980B2884206D24648C0794649C98923
:101F300080B2884206D3022000F060FF912043491E
:101F4000087001E000F0A0F974E00421424801F0BB
:101F5000B9FB01280CD1022000F050FF022000F054
:101F600002FB4620FEF72EF992203849087001E066
:101F700000F08AF95EE0FEF728F9002805D1642018
:101F8000FEF720F993203149087053E0FEF71DF960
:101F9000002815D10421304801F094FB01280CD110
:101FA000022000F02BFF0120254908701420FEF7C5
:101FB00009F994202549087004E000F065F901E072
:101FC00000F062F936E0FEF700F900280BD102209C
:101FD00000F014FF022000F0C6FA5720FEF7F2F8D6
:101FE00095201A49087025E0FEF7EFF8002814D173
:101FF0000421194801F066FB012805D00421174887
:1020000001F060FB012806D1022000F0F7FE9620C7
:102010000E49087001E000F037F90BE0022000F0F3
:10202000EDFE01200E49087012200849087001E0F9
:1020300000F048FD01BD000065030020730300208F
:102040006A030020180000203403002070030020E1
:10205000000C024071030020000802400000024012
:102060006803002080B500228021DFF8100201F013
:1020700034FB00222021DFF8040201F02EFB0022B5
:102080000821DFF8F80101F028FBDFF8F40101F086
:10209000F2FF0121DFF8E80102F07DF8DFF8E0014E
:1020A00002F090F9800506D5DFF8D40102F0C8F8F7
:1020B000DFF8D011C88100228021DFF8C00101F0D3
:1020C0000CFB00222021DFF8B40101F006FB012205
:1020D00008216A4801F001FB694801F0CCFF0121A9
:1020E000674802F058F8664802F06CF9800504D59C
:1020F000634802F0A5F863498880002280215F4888
:1021000001F0EBFA012220215C4801F0E6FA0022FE
:1021100008215A4801F0E1FA594801F0ACFF0121C9
:10212000574802F038F8564802F04CF9800504D5BB
:10213000534802F085F853490880002280214F4817
:1021400001F0CBFA012220214C4801F0C6FA01220D
:1021500008214A4801F0C1FA494801F08CFF0121E9
:10216000474802F018F8464802F02CF9800504D5DB
:10217000434802F065F84349C880012280213F4866
:1021800001F0ABFA002220213C4801F0A6FA00221F
:1021900008213A4801F0A1FA394801F06CFF012109
:1021A000374801F0F8FF364802F00CF9800504D5F5
:1021B000334802F045F833494880012280212F48F6
:1021C00001F08BFA002220212C4801F086FA01222E
:1021D00008212A4801F081FA294801F04CFF012129
:1021E000274801F0D8FF264802F0ECF8800504D516
:1021F000234802F025F823494881012280211F4805
:1022000001F06BFA012220211C4801F066FA00223D
:1022100008211A4801F061FA194801F02CFF012148
:10222000174801F0B8FF164802F0CCF8800504D535
:10223000134802F005F813498881012280210F48D4
:1022400001F04BFA012220210C4801F046FA01224C
:1022500008210A4801F041FA094801F00CFF012168
:10226000074801F098FF064802F0ACF8800504D555
:10227000034801F0E5FF0349088101BD0000024069
:102280003C0100203403002080B500F063F801BD5C
:1022900010B4002000210A00D2B2082A0EDA2A4A1D
:1022A0000B00DBB2D25C294B0C00E4B233F81430E3
:1022B00092B29A4200D3401C491CECE7C0B210BC59
:1022C000704730B400210A00002003005BB2082BE5
:1022D00013DA1D4B040064B21B5D1C4C05006DB28B
:1022E00034F815409BB2A34203D30300DBB21A00BB
:1022F00003E000231A00401CE7E70723180040B260
:10230000002813D410481C0064B2005D0F4C1D005F
:102310006DB234F8154080B2A04203D31800C0B2A9
:10232000010003E0082001005B1EE7E70800C0B2DF
:1023300050FA82F0022490FBF4F0054C207004481F
:10234000007830BC704700001800002034030020E3
:102350007203002070B5DFF82C070068DFF828173B
:102360000860DFF828070078001FDFF818170860FA
:10237000DFF810070068002806D5DFF808070068B6
:10238000401CDFF800170860DFF8F8060468322008
:102390004443002C00D56442DFF8E8060068DFF80B
:1023A000E8160D68451B4FF4C8704543002D00D555
:1023B0006D42DFF8DC060078002854D1DFF8C4064F
:1023C000006801280CDB40F2E730001B401BDFF8FF
:1023D000C416088040F2E730DFF8B81648800BE0FA
:1023E00040F2E730DFF8AC16088040F2E730001B1F
:1023F000401BDFF8A016488000263000C0B202283B
:102400007CDADFF890063100C9B230F9110040F2F1
:10241000E731884207DB40F2E730DFF87816320018
:10242000D2B221F81200DFF86C063100C9B230F9DF
:10243000110040F2F311884207DA40F2F310DFF89E
:1024400054163200D2B221F81200DFF848063100EB
:10245000C9B230F81100010089B23000C0B201F0F9
:10246000AFFD761CC9E7DFF81C060068012809DB10
:102470002819401CDFF81C1608800120DFF814160C
:10248000488008E00120DFF80C1608802819401C5D
:10249000DFF80016488000263000C0B202282DDA8E
:1024A000DFF8F0053100C9B230F91100B0F5FA7F5C
:1024B00007DB40F2F310DFF8DC153200D2B221F86E
:1024C0001200DFF8D0053100C9B230F9110001283F
:1024D00006DA0120DFF8BC153200D2B221F8120072
:1024E000DFF8B0053100C9B230F81100010089B23F
:1024F0003000C0B201F064FD761CCDE770BD10B5B0
:1025000004002000C0B200280AD140F2E7310020C8
:1025100001F056FD40F2E731012001F051FD07E0E6
:102520000121002001F04CFD0121012001F048FDB6
:1025300010BD10B504002000C0B200280AD140F23E
:10254000ED21002001F03CFD40F2ED21012001F0E1
:1025500037FD07E0F921002001F032FDF9210120CB
:1025600001F02EFD10BD10B504002000C0B20228FD
:1025700009D10121002001F023FD40F2B5310120F5
:1025800001F01EFD08E040F2B531002001F018FD19
:102590000121012001F014FD10BD10B50400200040
:1025A000C0B2022809D1F921002001F009FD40F252
:1025B000BB21012001F004FD08E040F2BB21002016
:1025C00001F0FEFCF921012001F0FAFC10BD80B5FC
:1025D000DFF8C4040078002829D00421DFF8BC0407
:1025E00001F070F8012806D00421DFF8B40401F0EE
:1025F00069F8012806D100F065FA0020DFF8981488
:10260000087014E00421DFF89C0401F05BF8012855
:1026100006D01021DFF8840401F054F8012803D11A
:102620000020FFF786FF02E00120FFF782FF01BDD7
:1026300080B5DFF874040078002800F08781DFF8A7
:1026400068040078012840F068810421DFF8540410
:1026500001F038F801280AD11021DFF8400401F018
:1026600031F8012803D10020FFF763FF55E1402135
:10267000DFF8300401F026F8012806D11021DFF838
:10268000200401F01FF801280DD00121DFF80C040F
:1026900001F018F801280AD14021DFF8040401F004
:1026A00011F8012803D10120FFF743FF35E1042190
:1026B000DFF8F00301F006F800281BD10421DFF851
:1026C000DC0300F0FFFF002814D14021DFF8D40321
:1026D00000F0F8FF00280DD10121DFF8C00300F061
:1026E000F1FF002806D14021DFF8B40300F0EAFF33
:1026F000012875D00421DFF8AC0300F0E3FF0128C6
:102700001BD10421DFF8940300F0DCFF002814D172
:102710004021DFF8900300F0D5FF00280DD1012102
:10272000DFF8780300F0CEFF002806D14021DFF863
:10273000700300F0C7FF002852D00421DFF86403C3
:1027400000F0C0FF012806D14021DFF8540300F05B
:10275000B9FF012844D00421DFF8480300F0B2FF9C
:10276000012806D11021DFF8380300F0ABFF012863
:1027700036D00421DFF82C0300F0A4FF012806D195
:102780000421DFF81C0300F09DFF012828D004215C
:10279000DFF8080300F096FF012806D14021DFF89A
:1027A000000300F08FFF01281AD00421DFF8EC02AB
:1027B00000F088FF012806D11021DFF8E40200F0C4
:1027C00081FF01280CD04021DFF8D80200F07AFF09
:1027D000012809D14021B24800F074FF012803D13B
:1027E0000320FFF7DAFE98E00121AC4800F06AFF11
:1027F000012817D11021A94800F064FF002811D149
:102800000421A74800F05EFF00280BD11021A44846
:1028100000F058FF002805D14021A14800F052FFE8
:10282000002865D004219F4800F04CFF002817D1F4
:1028300004219A4800F046FF002811D14021994810
:1028400000F040FF00280BD10121944800F03AFF2E
:10285000002805D11021914800F034FF012847D00D
:1028600001218E4800F02EFF012805D110218B4850
:1028700000F028FF01283BD00121884800F022FF0A
:10288000012805D10421864800F01CFF01282FD023
:102890000121824800F016FF012805D1102180484F
:1028A00000F010FF012823D040217E4800F00AFFED
:1028B000012805D11021794800F004FF012817D024
:1028C0004021784800F0FEFE012805D1042174481B
:1028D00000F0F8FE01280BD00421704800F0F2FE51
:1028E000012809D110216D4800F0ECFE012803D128
:1028F0000220FFF752FE10E00421684800F0E2FEDB
:1029000001280AD10421664800F0DCFE012804D128
:1029100000F0D8F802206449087063480078022863
:1029200014D140215F4800F0CDFE012805D01021D0
:102930005B4800F0C7FE012805D100F0C3F8002075
:102940005949087002E00020FFF7F3FD01BD80B592
:102950005548007800281FD054480078002809D135
:102960004FF4C8705249088050480078401C4F49C5
:10297000087011E04E480088002805D04C480088B7
:10298000401E4B49088007E000204749087000F0CE
:1029900099F800204549087001BD00B585B045484B
:1029A000007800286CD04448007800284CD10A20D8
:1029B000424908700120404908700021404800F059
:1029C0006BFF00213E4801F0DBFD04213C4800F094
:1029D00063FF04213A4801F0D3FD6846142101F059
:1029E00065FE4FF46060009001200190002002908D
:1029F0000020039069462B4800F09CFC4FF4807047
:102A00000090012001900020029000200390694670
:102A1000244800F08FFC00224FF40071214800F0A0
:102A20005CFE00224FF480711E4800F056FE00222A
:102A30004FF400611B4800F050FE00224FF480610B
:102A4000184800F04AFE1BE01C480078002805D01A
:102A50001A480078401E1949087011E04FF460616F
:102A6000104800F077FD4FF480710E4800F072FDC1
:102A700001F032FF00200F49087000200E49087055
:102A800005B000BD4C030020480300207203002065
:102A9000690300204403002067030020000802406F
:102AA0000000024000100240680300206B03002079
:102AB0005A0300206A0300206D0300206C030020ED
:102AC0008401002080B540F2F311002001F078FA73
:102AD00040F2F311012001F073FA01BDAE49087014
:102AE0007047AD480078002801D0012000E00020A8
:102AF000704710B5A8480078002804D0A648007890
:102B0000401EA5490870A5480078002839D1A4487E
:102B1000007800280DD10121A24800F0D3FD002843
:102B200000F0388101209E4908700220FFF7D6FF8F
:102B300030E1FFF7D6FF002840F02C819A4800785A
:102B400000280AD10121974800F0BCFD002800F0C0
:102B500021810120944908701CE10121914800F075
:102B6000B1FD002840F01681022000F047F9002056
:102B70008D49087000208A49087001208749087033
:102B800008E18748007800280CD10121854800F031
:102B900099FD002851D00120814908700220FFF7DB
:102BA0009DFF4AE0FFF79DFF002846D17E48007850
:102BB000002809D101217B4800F084FD00283CD089
:102BC00001207949087038E00121764800F07AFD4B
:102BD000002832D1022000F011F91021734802F0D0
:102BE00093F9002004002000C0B208281CDA6F48C6
:102BF0002100C9B2405C6D492200D2B21144097A69
:102C00000818022190FBF1F069492200D2B28854E1
:102C100067482100C9B2425C2100C9B2491C65481D
:102C200002F0A4F9641CDEE700205C490870002073
:102C30005D49087000205A4908705F4800780028F4
:102C40000CD110215D4800F03DFD00284BD1012042
:102C5000594908700220FFF741FF44E0FFF741FFA8
:102C6000002840D150480078002809D1102153484D
:102C700000F028FD002836D101204B49087032E0D1
:102C800010214E4800F01EFD00282CD0002004002A
:102C90002000C0B208281DDA49482100C9B230F826
:102CA000110048492200D2B2885445482100C9B2D7
:102CB00030F811202100C9B2491C434802F056F9EE
:102CC00040482100C9B2405C38492200D2B2885441
:102CD000641CDDE7022000F091F800203249087002
:102CE0000020354908703948007800280CD10821A7
:102CF000324800F0E7FC00284CD10120334908702D
:102D00000220FFF7EBFE45E0FFF7EBFE002841D184
:102D100025480078002809D10821284800F0D2FC75
:102D2000002837D101202049087033E008212348CA
:102D300000F0C8FC00282DD0002004002000C0B204
:102D400008281EDA1E482100C9B230F811002049B7
:102D50002200D2B288541A482100C9B230F811209A
:102D60002100C9B2491C1B4802F000F91848210093
:102D7000C9B2405C0D492200D2B211440872641CF1
:102D8000DCE7022000F03AF8002007490870002034
:102D90000E49087010BD0000600300205E03002093
:102DA00061030020000002405F0300202403002094
:102DB000180000206C83000862030020001002400D
:102DC000340300200800002044830008630300202F
:102DD000100000205883000810B504002000C0B285
:102DE000012805D100221021124800F076FC04E0F1
:102DF000012210210F4800F070FC10BD10B5040036
:102E00002000C0B20C4908800120FFF7E5FF10BD8B
:102E100080B509480088002808D00120FFF7DCFFB2
:102E200005480088401E0449088002E00020FFF7A2
:102E3000D3FF01BD000C02405803002080B5DFF82D
:102E40008C03007801281AD14FF40051DFF8800379
:102E500000F038FC00280ED102F0C2F8322000F059
:102E600079FC622000F070FC822000F079FC0020E8
:102E7000D649087017E0002002F097F813E0D34815
:102E8000007802280FD14FF48041D14800F01AFC9D
:102E9000002805D102F0A4F80020CC49087002E017
:102EA000012002F082F801BD80B5CA4800780128EF
:102EB0001BD14FF4FA7002F0A5F8C82000F04AFCCC
:102EC0004FF4FA7002F09EF88C2000F049FC4FF4A9
:102ED000FA7002F097F8E62000F036FC0020BD49B9
:102EE0000870BD4800F060FC6EE1BA480078022826
:102EF00040F06A81B9480078002839D1AA2000F052
:102F00002FFC4FF4FA7002F07DF80220FFF745FB2A
:102F10004FF4167002F076F8FFF7D4FD322002F07D
:102F200071F80320FFF739FB4FF4487002F06AF89C
:102F3000FFF7C8FD322002F065F80220FFF72DFBF5
:102F40004FF4487002F05EF8FFF7BCFD322002F04B
:102F500059F80320FFF721FB4FF4167002F052F8E6
:102F6000FFF7B0FD9D480078401C9C490870F9E0CF
:102F70009A48007801283CD1642002F043F8AA2046
:102F800000F0EEFB4FF4FA7002F03CF80320FFF77C
:102F900004FB4FF4167002F035F8FFF793FD322072
:102FA00002F030F80220FFF7F8FA4FF4487002F010
:102FB00029F8FFF787FD322002F024F80320FFF7FD
:102FC000ECFA4FF4487002F01DF8FFF77BFD322059
:102FD00002F018F80220FFF7E0FA4FF4167002F042
:102FE00011F8FFF76FFD7D480078401C7B490870A1
:102FF000B8E07A480078022839D1AA2000F0B0FB66
:103000004FF4FA7001F0FEFF0220FFF7C6FA4FF40A
:10301000167001F0F7FFFFF755FD322001F0F2FFC7
:103020000320FFF7BAFA4FF4487001F0EBFFFFF707
:1030300049FD322001F0E6FF0220FFF7AEFA4FF41F
:10304000487001F0DFFFFFF73DFD322001F0DAFFAD
:103050000320FFF7A2FA4FF4167001F0D3FFFFF739
:1030600031FD5E480078401C5C4908707AE05B489E
:103070000078032839D1AA2000F072FB4FF4FA70CF
:1030800001F0C0FF0220FFF788FA4FF4167001F03C
:10309000B9FFFFF717FD322001F0B4FF0320FFF75F
:1030A0007CFA4FF4487001F0ADFFFFF70BFD3220C2
:1030B00001F0A8FF0220FFF770FA4FF4487001F00A
:1030C000A1FFFFF7FFFC322001F09CFF0320FFF778
:1030D00064FA4FF4167001F095FFFFF7F3FC3F48D8
:1030E0000078401C3D4908703CE03C4800780428CA
:1030F00038D1AA2000F034FB4FF4FA7001F082FFBF
:103100000220FFF74AFA4FF4167001F07BFFFFF739
:10311000D9FC322001F076FF0320FFF73EFA4FF48E
:10312000487001F06FFFFFF7CDFC322001F06AFF1D
:103130000220FFF732FA4FF4487001F063FFFFF707
:10314000C1FC322001F05EFF0320FFF726FA4FF4A6
:10315000167001F057FFFFF7B5FC20480078401CBF
:103160001E490870322000F0F5FAE62000F0ECFA73
:103170004FF4FA7001F046FF0421154800F0A2FA5E
:10318000012805D01021164800F09CFA012803D12F
:103190000120FFF7B4F9EFE7FFF794FC4FF4FA7062
:1031A00001F030FFE62000F0DBFA0120FFF7A7F97D
:1031B0004FF4FA7001F026FFFFF784FC0020054968
:1031C0000870054800F0F0FA01BD0000650300201A
:1031D0000010024064030020440200206603002027
:1031E0000008024080B5002280214F4800F075FAA7
:1031F000962001F007FF012280214B4800F06DFA74
:1032000000224021484800F068FA962001F0FAFEBA
:1032100001224021444800F060FA00222021424867
:1032200000F05BFA962001F0EDFE012220213E48DD
:1032300000F053FA322001F0E5FE01BD80B53B48B5
:103240000078002805D0022845D023D3032863D076
:1032500068E000228021344800F03FFA012240213A
:10326000314800F03AFA012220212F4800F035FAC7
:103270002F480078401C2E4908702D4800780B28F4
:1032800007DB2A480078401C28490870002028499C
:10329000087047E001228021234800F01EFA002236
:1032A0004021214800F019FA012220211E4800F097
:1032B00014FA1F480078401C1D4908701C4800780B
:1032C0000B2807DB19480078401C184908700020BB
:1032D0001749087026E001228021134800F0FDF90B
:1032E00001224021104800F0F8F9002220210E4868
:1032F00000F0F3F90E480078401C0D4908700C48A6
:1033000000780B2807DB09480078401C0749087043
:1033100000200749087005E00020044908700020DB
:103320000349087001BD0000000C02406E0300203C
:103330006F030020F8B40023002400250026102E7F
:1033400080F006810122B24013000A681A4014007E
:103350009C4240F0FB804A68022A02D04A68122A46
:103360001ED13200D20800EB8202176A5FF00F0C08
:1033700016F00702D2B292001CFA02FC37EA0C07E0
:10338000D1F810C016F00702D2B292001CFA02FC6B
:103390005CEA07073D003200D20800EB82021562AA
:1033A00007685FF0030C3200D2B252001CFA02FC34
:1033B00037EA0C0791F804C01CF0030C3200D2B2BB
:1033C00052001CFA02FC5CEA070707604A68012AFF
:1033D00008D04A68022A05D04A68112A02D04A68F1
:1033E000122A24D185685FF0030C3200D2B2520059
:1033F0001CFA02FC35EA0C05D1F80CC03200D2B23E
:1034000052001CFA02FC5CEA0505856042685FF028
:10341000010C1CFA06FC32EA0C02D1F804C0CCF311
:10342000001C1CFA06FC5CEA020217004760C56833
:103430005FF0030C3200D2B252001CFA02FC35EAF3
:103440000C05D1F808C03200D2B252001CFA02FCBE
:103450005CEA0505C5604A68D20077D50022009273
:10346000DFF89022126852F48042DFF888723A60E6
:10347000A04A126812F480420092009A9E4A3700D5
:10348000BF0852F827705FF00F0C16F00302D2B29B
:1034900092001CFA02FC37EA0C07984A904201D1CC
:1034A000002523E0964A904201D101251EE0954A6D
:1034B000904201D1022519E0934A904201D103259F
:1034C00014E0924A904201D104250FE0904A9042C4
:1034D00001D105250AE08F4A904201D1062505E079
:1034E0008D4A904201D1072500E00825EDB216F083
:1034F0000302D2B2920095402F437F4A3500AD08B7
:1035000042F82570854A1268A2434D68ED0300D544
:103510002243824D2A60824D2D68A5434F68BF0328
:1035200000D525437E4A15607E4A1268A2434F6843
:10353000FF0200D522437B4D2A607B4D2D68A543B9
:103540004F68BF0200D52543774A1560761CF6E622
:10355000F1BC7047F0B50023002400250026102E92
:1035600080F0AF800122B240130013EA0102140080
:103570009C4240F0A480604A3700BF0852F8277090
:103580005FF00F0C16F00302D2B292001CFA02FC9C
:103590001CEA07073D00594A904201D1002723E069
:1035A000574A904201D101271EE0564A904201D16C
:1035B000022719E0544A904201D1032714E0534AEC
:1035C000904201D104270FE0514A904201D10527D2
:1035D0000AE0504A904201D1062705E04E4A904247
:1035E00001D1072700E00827FFB216F00302D2B28C
:1035F00092009740BD4226D10F2716F00302D2B2A7
:10360000920097403D003C4A3700BF0852F82720FF
:10361000AA43394FB4465FEA9C0C47F82C203F4A36
:103620001268A2433D4F3A603D4A1268A2433C4FA4
:103630003A603C4A1268A2433A4F3A603A4A1268EA
:10364000A243394F3A6007685FF0030C3200D2B2F0
:1036500052001CFA02FC37EA0C0707603200D2085D
:1036600000EB82073200D20800EB8202D2F820C0C1
:103670005FF00F0E16F00702D2B292001EFA02FEA1
:103680003CEA0E0CC7F820C087685FF0030C3200DC
:10369000D2B252001CFA02FC37EA0C07876042687B
:1036A0000127B740BA434260C7685FF0030C32009D
:1036B000D2B252001CFA02FC37EA0C07C760761C33
:1036C0004DE7F0BD020010690B009BB2184201D01B
:1036D000012000E00020C0B270471300DBB2002BD5
:1036E00003D00B009BB2836103E00B009BB21B0471
:1036F00083617047443802400838014000000240AE
:103700000004024000080240000C02400010024089
:103710000014024000180240001C0240003C01401E
:10372000043C0140083C01400C3C014080B50021B4
:103730000E4800F085F804210C4800F081F80821BB
:103740000A4800F07DF801BD0100C9B2074A1268BD
:10375000516370470100C9B2044A1268916370470F
:103760000100C9B2014A1268D1637047C401002048
:1037700010B50400002C01D1012014E094F83D00A4
:10378000002805D1002084F83C00200001F0AFFCA7
:10379000022084F83D00211D206800F074FA012009
:1037A00084F83D00002010BD01000868C06850F09A
:1037B00001000A68D0600868826812F00702062AD1
:1037C00005D00868006850F001000B681860002000
:1037D000704701000868C068400840000A68D0606F
:1037E0000868006A41F2111210420BD10868006AA1
:1037F00040F24442104205D1086800684008400089
:103800000A6810600020704710B50400002C01D138
:10381000012014E094F83D00002805D1002084F830
:103820003C00200001F096FD022084F83D00211D9F
:10383000206800F028FA012084F83D00002010BD27
:1038400038B504000D0001222900206800F097FB24
:103850002068DFF8C810884204D02068DFF8C01064
:10386000884201D1012000E00020C0B2002805D02C
:103870002068406C50F400402168486420688168EA
:1038800011F00701062905D02068006850F00100FA
:1038900022681060002032BD38B504000D000022FF
:1038A0002900206800F06BFB2068DFF87010884268
:1038B00004D02068DFF86810884201D1012000E0C0
:1038C0000020C0B2002811D02068006A41F2111116
:1038D00008420BD12068006A40F24441084205D1F9
:1038E0002068406C30F40040216848642068006A19
:1038F00041F2111108420BD12068006A40F24441A4
:10390000084205D12068006840084000216808602E
:10391000012084F83D00002032BD0000000001407D
:103920000004014010B504002068006980071AD522
:103930002068C068800716D57FF002002168086102
:10394000012020772068806910F0030F03D0200049
:1039500001F001FD05E0200001F0FEFC200001F077
:10396000FCFC002020772068006940071AD52068F9
:10397000C068400716D57FF0040021680861022066
:1039800020772068806910F4407F03D0200001F088
:10399000E2FC05E0200001F0DFFC200001F0DDFC8E
:1039A000002020772068006900071AD52068C068C9
:1039B000000716D57FF008002168086104202077F1
:1039C0002068C06910F0030F03D0200001F0C3FC91
:1039D00005E0200001F0C0FC200001F0BEFC00204A
:1039E000207720680069C0061AD52068C068C00624
:1039F00016D57FF010002168086108202077206824
:103A0000C06910F4407F03D0200001F0A4FC05E061
:103A1000200001F0A1FC200001F09FFC0020207795
:103A200020680069C0070AD52068C068C00706D5AD
:103A30007FF0010021680861200001F01CFA206875
:103A4000006900060AD52068C068000606D57FF028
:103A5000800021680861200001F080FC2068006976
:103A600040060AD52068C068400606D57FF04000B1
:103A700021680861200001F072FC2068006980065E
:103A80000AD52068C068800606D57FF0200021682E
:103A90000861200001F064FC10BD70B504000D0049
:103AA000160094F83C00012801D1022074E00120A6
:103AB00084F83C00022084F83D003000002806D045
:103AC00004281BD0082831D00C2846D05DE02900FE
:103AD000206800F03BF92068806950F008002168F8
:103AE00088612068806930F004002168886120685E
:103AF0008169286901432068816146E029002068C6
:103B000000F057F92068806950F4006021688861EE
:103B10002068806930F4806021688861206880694D
:103B2000296950EA0120216888612EE02900206877
:103B300000F077F92068C06950F008002168C8617A
:103B40002068C06930F004002168C8612068C1693C
:103B5000286901432068C16117E02900206800F04E
:103B600097F92068C06950F400602168C861206836
:103B7000C06930F480602168C8612068C069296923
:103B800050EA01202168C861FFE7012084F83D0068
:103B9000002084F83C00002070BD70B504000D00CA
:103BA00094F83C00012801D102206BE0012084F848
:103BB0003C00022084F83D002068866836F07706D5
:103BC00036F47F4620688660286800284ED010288A
:103BD0004CD020284AD0302848D040283CD050280B
:103BE00026D060282ED0702807D0B0F5805F03D093
:103BF000B0F5005F0FD03EE03DE0EB686A68A96871
:103C0000206800F0B0F92068806850F07700060066
:103C1000206886602FE0EB686A68A968206800F079
:103C2000A2F92068806850F480402168886022E012
:103C3000EA686968206800F069F95021206800F09E
:103C40008AF918E0EA686968206800F071F9602173
:103C5000206800F080F90EE0EA686968206800F0EA
:103C600055F94021206800F076F904E029682068C1
:103C700000F071F9FFE7012084F83D00002084F88E
:103C80003C00002070BD0368DFF85422904212D03F
:103C9000B0F1804F0FD0DFF84C2290420BD0DFF80C
:103CA0004822904207D0DFF84422904203D0DFF848
:103CB0004022904203D133F070034A681343DFF887
:103CC000202290422AD0B0F1804F27D0DFF8142272
:103CD000904223D0DFF8102290421FD0DFF80C2250
:103CE00090421BD0DFF80822904217D0DFF8042260
:103CF000904213D0DFF8002290420FD0DFF8FC2171
:103D000090420BD0DFF8F821904207D0DFF8F42181
:103D1000904203D0DFF8F021904203D133F4407396
:103D2000CA68134333F080034A69134303608A6807
:103D3000C2620A6882626A4A904202D06C4A904229
:103D400001D10A69026301224261704730B4026AFC
:103D5000520852000262056A4368846934F07004B4
:103D6000A408A4000A68144335F002058A681543C4
:103D70005B4A904202D05E4A904205D135F0080578
:103D8000CA68154335F00405554A904202D0584A96
:103D9000904207D133F4807333F400734A691343BC
:103DA0008A691343436084614A684263056230BC98
:103DB000704730B4026A32F010020262046A42684C
:103DC000836933F4E04333F440730D6853EA052309
:103DD00034F020048D6854EA0514414DA84202D005
:103DE000434DA84206D134F08004CD6854EA05144E
:103DF00034F040043A4DA84202D03D4DA84209D1CA
:103E000032F4806232F400624D6952EA85028D69B3
:103E100052EA8502426083614D688563046230BC6A
:103E2000704730B4026A32F480720262056A4368F5
:103E3000C46934F07004A408A4000A68144335F47B
:103E400000758A6855EA0225254A904202D0284A20
:103E5000904206D135F40065CA6855EA022535F46A
:103E600080651F4A904202D0214A904209D133F422
:103E7000805333F400534A6953EA02138A6953EAC0
:103E800002134360C4614A68C263056230BC704774
:103E900030B4026A32F480520262036A4468C26932
:103EA00032F4E04232F440720D6852EA052233F4F3
:103EB00000538D6853EA0533094DA84202D00C4DDA
:103EC000A84204D134F480444D6954EA8514446016
:103ED000C2614D680564036230BC70470000000099
:103EE000000001400004004000080040000C0040B9
:103EF00000040140004001400044014000480140EE
:103F000000180040001C00400020004010B4046A6B
:103F1000036A5B085B000362836933F0F00353EAD2
:103F2000021334F00A040C438361046210BC70472E
:103F300010B4036A33F0100303628369046A33F434
:103F4000704353EA023334F0A00454EA011483614D
:103F5000046210BC7047836833F0700351F00702AD
:103F600013438360704730B4846834F47F4452EA6A
:103F7000010555EA03252C43846030BC704730B4FA
:103F8000012411F01F0314FA03F3046A9C43046232
:103F9000046A11F01F0512FA05F52C43046230BCC7
:103FA0007047B1F5807F02D34FF0FF30704701704A
:103FB000012070470078401E8041C043C00F704709
:103FC00038B504000D002000C0B2002802D001283E
:103FD0000ED01AE004210D48FFF732FC04210B48F3
:103FE00000F0B2FA280080B20849096888630CE042
:103FF00000210648FFF724FC0021044800F0A4FA41
:10400000280080B201490968486331BD840100205D
:1040100038B504000025002C01D101202AE0A06A57
:10402000DFF800158842206C002807D1200001F03D
:1040300024F800206064002084F83C00206CC00656
:1040400011D4206C30F4885050F00200206420001D
:1040500000F0BAF900206064206C30F0020050F0EB
:104060000100206401E001200500002084F83C00EC
:104070002800C0B232BD81B002000020009092F84A
:104080003C00012801D1022083E0012082F83C009D
:1040900010688068C00716D41068806850F001006E
:1040A00013689860DFF880040068DFF88034B0FBA4
:1040B000F3F30320434300930098002803D00098B3
:1040C000401E0090F8E710688068C00760D5136C48
:1040D000DFF85C04034053F4807313641068406895
:1040E000400505D5106C30F4005050F48050106439
:1040F000106CC00404D5506C30F00600506401E030
:1041000000205064002082F83C00DFF82804010001
:104110007FF0220013681860486810F01F0F27D145
:104120001068DFF81434984216D01068DFF80C34A9
:10413000984205D1DFF80804006810F01F0F0BD07B
:104140001068DFF80034984222D1DFF8F4030068E9
:1041500010F01F0010281BD21068806810F0405F1C
:1041600016D11068806850F08040136898600FE0A6
:104170001068DFF8C43398420AD11068806810F0E4
:10418000405F05D11068806850F0804013689860E7
:10419000002001B07047F8B505000C000026286823
:1041A000806840050CD528688068C00508D5286C53
:1041B00050F020002864002085F83C0001203EE0FB
:1041C00001F0D0F8070028680068800712D414F1C5
:1041D000010FF8D0002C04D001F0C4F8C01B8442B9
:1041E000F1D2286C50F004002864002085F83C00CF
:1041F000032024E07FF0120029680860286C50F446
:10420000007028642868806810F0405F16D1287E0E
:10421000002813D12868C06A10F4700F03D02868F2
:10422000806840050AD4286C30F480702864286CBB
:10423000C00403D4286C50F0010028640020F2BDB3
:104240000068C06C704738B402000020009092F8FB
:104250003C00012801D10220B2E0012082F83C009C
:1042600008680A2818D31068C368072408680A3841
:10427000032510FB05F08440A3431068C360106859
:10428000C3688C6808680A38032510FB05F0844071
:1042900023431068C36013E01068036907240D68A6
:1042A00003204543AC40A3431068036110680369D1
:1042B0008C680D6803204543AC40234310680361BC
:1042C0004868072818D21068436B1F244868401EAE
:1042D000052510FB05F08440A34310684363106874
:1042E000436B0C884868401E052510FB05F0844090
:1042F00023431068436333E048680D2818D21068E0
:10430000036B1F244868C01F052510FB05F084407F
:10431000A343106803631068036B0C884868C01FD0
:10432000052510FB05F0844023431068036317E064
:104330001068C36A1F2448680D38052510FB05F076
:104340008440A3431068C3621068C36A0C8848683D
:104350000D38052510FB05F0844023431068C36227
:10436000744B1068744CA04206D10868122803D11F
:10437000586850F48000586010686F4CA0421BD100
:104380000868102802D00868112815D1586850F420
:1043900000005860086810280ED163480068634C1C
:1043A000B0FBF4F40A20444300940098002803D0A2
:1043B0000098401E0090F8E7002082F83C000020A2
:1043C00032BC7047006C70475A4A516831F4403132
:1043D0005160536841680B4353600168496831F488
:1043E00080710368596001684968036951EA0321D3
:1043F000036859600168496831F040710368596089
:1044000001684B6881680B4301684B6001688968EB
:1044100031F400610368996001688B68C1680B43DF
:1044200001688B60816A3F4B994218D001688968A6
:1044300031F070610368996001688B68816A0B4391
:1044400001688B600168896831F0405103689960A8
:1044500001688B68C16A0B4301688B600BE00168DF
:10446000896831F07061036899600168896831F08A
:104470004051036899600168896831F0020103685E
:10448000996001688968037E51EA43010368996075
:1044900090F82010002914D00168496851F4006197
:1044A000036859600168496831F4604103685960E4
:1044B00001684968436A5B1E51EA433103685960E9
:1044C00005E00168496831F40061036859600168DA
:1044D000C96A31F470010368D9620168C96AC369A5
:1044E0005B1E51EA03510368D9620168896831F49F
:1044F0000071036899600168896890F8303051EA6A
:104500004321036899600168896831F48061036818
:10451000996001688968436951EA83210368996059
:10452000704700000100000F0400002040420F000F
:10453000FEF9FFFF0023014000200140002101405F
:10454000042301400022014038B504000D0004227C
:104550002900206800F097F82068406C50F4004073
:10456000216848642068816811F00701062905D098
:104570002068006850F0010022681060002032BD01
:1045800038B504000D0000222900206800F07BF8F7
:104590002068006A41F2111108420BD12068006ABC
:1045A00040F24441084205D12068406C30F400409C
:1045B000216848642068006A41F2111108420BD159
:1045C0002068006A40F24441084205D12068006832
:1045D0004008400021680860002032BD10B402008D
:1045E00092F83C00012801D102201CE0012082F851
:1045F0003C00022082F83D0010684368106884681F
:1046000033F070030868034334F0800448680443BF
:104610001068436010688460012082F83D0000202B
:1046200082F83C00002010BC70470200002392F882
:104630003C00012801D1022024E0012082F83C0046
:104640001B0A1B02C868034333F4407388680343A2
:1046500033F480634868034333F40063086803431A
:1046600033F480530869034333F400534869034328
:1046700033F48043C869034310684364002082F820
:104680003C000020704730B4042411F01F0314FADA
:1046900003F3046A9C430462046A11F01F0512FAD2
:1046A00005F52C43046230BC70470000002200F086
:1046B0005FBE000010B500F075FE00F053F800F08A
:1046C000E3FA00F009F900F054FA00F0B1F800F054
:1046D0009EF900F07AFA00F0B5FA00F018FA00F04E
:1046E0009DF800F057FCFFF721F80120FEF774FB5E
:1046F000FEF778FD0020FEF76FFB1022DFF8881729
:10470000DFF8880700F026FC00242000C0B208284B
:1047100021DADFF878072100C9B2405CDFF86C17B6
:104720002200D2B21144097A0818022190FBF1F05C
:10473000DFF85C172200D2B28854DFF8540721005A
:10474000C9B2425C2100C9B2491CDFF8480700F039
:104750000DFC641CD9E7DFF84007FFF725F8FEF7EA
:10476000A3FBFCE780B592B006A83021FFF79EFFBF
:1047700001A81421FFF79AFF00200090DFF81C0722
:10478000006850F08050DFF814170860DFF80C075D
:10479000006810F080500090009800200090DFF832
:1047A0000007006850F48040DFF8F4160860DFF876
:1047B000F006006810F480400090009801200690F8
:1047C0005FF48030079002200C905FF480000D9021
:1047D00008200E904FF4A8700F9002201090042033
:1047E000119006A800F0FEFD002801D000F08AFB21
:1047F0000F20019002200290002003904FF4A0505F
:1048000004904FF480500590052101A800F0CAFFE4
:10481000002801D000F076FB13B000BD80B5002267
:104820000121372001F04EF9372001F060F901BD78
:10483000F8B568461021FFF739FFDFF86806DFF8A2
:10484000681608605FF48030DFF85C1648605FF03F
:104850000070DFF8541688600020DFF84C160861FD
:104860000020DFF8441608760020DFF83C1681F8B7
:1048700020000020DFF83016C862DFF83006DFF8CD
:10488000281688620020DFF82016C8600120DFF8B3
:104890001816C8610020DFF8101681F830000120DA
:1048A000DFF804164861DFF80006FFF7B1FB0028C7
:1048B00001D000F027FB012000900120019007208B
:1048C00002906946DFF8E005FFF7BDFC002801D043
:1048D00000F018FB05B000BD00B595B011A810217F
:1048E000FFF7E4FEDFF8C805D0E90023CDE9002397
:1048F00002A81C21FFF7DAFE09A82021FFF7D6FE47
:10490000DFF8B005DFF8B01508601120DFF8A81552
:1049100048600020DFF8A015886040F2E730DFF83B
:104920009815C8600020DFF8901508610020DFF8B6
:10493000881548618020DFF880158861DFF87805E8
:10494000FEF716FF002801D000F0DCFA4FF480508B
:10495000119011A9DFF86005FFF71FF9002801D0B9
:1049600000F0D0FADFF85005FEF74EFF002801D026
:1049700000F0C8FA00200090002001906946DFF89E
:104980003805FFF72BFE002801D000F0BBFA6020AD
:104990000290002003900020049000200590002049
:1049A00006900020079000200890002202A9DFF85E
:1049B0000805FFF772F8002801D000F0A3FA0422DE
:1049C00002A9DFF8F404FFF768F8002801D000F02E
:1049D00099FA0020099000200A9000200B900020F6
:1049E0000C9000200D904FF400500E90002010907D
:1049F00009A9DFF8C404FFF718FE002801D000F071
:104A000081FADFF8B40400F0D3FB15B000BD00B5A7
:104A10008DB009A81021FFF749FEDFF8A004D0E906
:104A20000023CDE9002302A81C21FFF73FFEDFF899
:104A30009004DFF89014086040F24730DFF88414E7
:104A400048600020DFF87C14886040F2CF70DFF807
:104A50007414C8600020DFF86C1408610020DFF8CF
:104A600064148861DFF85C04FEF782FE002801D040
:104A700000F048FA4FF48050099009A9DFF8440487
:104A8000FFF78BF8002801D000F03CFADFF834047F
:104A9000FEF7BAFE002801D000F034FA00200090A2
:104AA000002001906946DFF81C04FFF797FD0028FD
:104AB00001D000F027FA602002900020039000202F
:104AC000049000200690002202A9DFF8F803FEF708
:104AD000E4FF002801D000F015FA042202A9DFF853
:104AE000E403FEF7DAFF002801D000F00BFA0822F9
:104AF00002A9DFF8D003FEF7D0FF002801D000F0B4
:104B000001FADFF8C00300F053FB0DB000BDE0B5C3
:104B1000DFF8B403D0E90023CDE90023DFF8AC03CC
:104B2000DFF8AC1308600120DFF8A4134860002010
:104B3000DFF89C1388605420DFF89413C8600020CD
:104B4000DFF88C138861DFF88803FEF711FE002878
:104B500001D000F0D7F900200090002001906946B4
:104B6000DFF86C03FFF73AFD002801D000F0CAF926
:104B700007BDE0B5DFF85C03D0E90023CDE90023F1
:104B8000DFF85403C44908605320C349486000203B
:104B9000C149886042F21070BF49C8600020BE4918
:104BA0008861BD48FEF7E4FD002801D000F0AAF9B5
:104BB00000200090002001906946B748FFF70EFDE5
:104BC000002801D000F09EF907BD00B587B0684607
:104BD0001C21FFF76BFDC148C14908605320C04943
:104BE00048600020BE4988604FF49670BC49C86098
:104BF0000020BB4908618020B9498861B848FEF7A8
:104C0000B7FD002801D000F07DF9B548FEF7FCFDA6
:104C1000002801D000F076F9602000906420019017
:104C2000002002900020049000226946AC48FEF764
:104C300034FF002801D000F065F9A94800F0B8FA67
:104C400007B000BD80B5A748A74908605FF4E13010
:104C5000A54948600020A44988600020A249C86096
:104C60000020A14908610C209F49486100209E490D
:104C7000886100209C49C8619B4800F055FF0028CE
:104C800001D000F03FF901BD80B586B0684614211F
:104C9000FFF70CFD002005909448006850F01000CC
:104CA000924908609148006810F01000059005983E
:104CB000002005908D48006850F080008B49086006
:104CC0008A48006810F08000059005980020059043
:104CD0008648006850F004008449086083480068F2
:104CE00010F0040005900598002005907F480068AA
:104CF00050F001007D4908607C48006810F0010018
:104D000005900598002005907848006850F0020052
:104D1000764908607548006810F002000590059813
:104D2000002005907148006850F008006F49086045
:104D30006E48006810F00800059005980022A82130
:104D40006B48FEF7CAFC00224BF240016948FEF7AF
:104D5000C4FC0022F0216848FEF7BFFC00220121BC
:104D60006648FEF7BAFC46F244000090002001902D
:104D70000020029069466148FEF7DCFA1820009096
:104D8000002001900120029069465C48FEF7D2FAAB
:104D9000152000900020019000200290694658489C
:104DA000FEF7C8FA01200090002001900220029036
:104DB00069464F48FEF7BEFA54200090002001904B
:104DC0000020029069464A48FEF7B4FAA8200090F5
:104DD0000120019000200290002003906946444881
:104DE000FEF7A8FA4BF2400000900120019000204D
:104DF00002900020039069463E48FEF79BFA4FF46C
:104E000080400090002001900020029069463948BF
:104E1000FEF790FA4FF440400090002001900020EF
:104E2000029069463448FEF785FAF0200090012090
:104E30000190002002900020039069462E48FEF762
:104E400079FA0120009001200190002002900020BA
:104E5000039069462948FEF76DFA07B000BD11B509
:104E600081B00C004FF6FF73012201A91E4800F02B
:104E700096FE019816BD10B50400206816498842B8
:104E800001D1FBF781F910BD00000E0824030020BA
:104E9000180000207C8300084402002040380240B3
:104EA00000700040002001403C0100200100000F84
:104EB000B88300080000014084010020C08300087E
:104EC00000040040C4010020C88300080010004016
:104ED00004020020D0830008001400400044014078
:104EE0008402002000100140C4020020303802403B
:104EF0000000024000040240000C0240001002408A
:104F0000000802407047000070B586B004000D0034
:104F100072B601F0BCF8002001900B200390012034
:104F2000049000200090694601A801F097F900263E
:104F3000AE4208D2A25D002305498919002001F084
:104F400059F8761CF4E701F0B5F862B606B070BD0A
:104F500000000E0810B40023934204D25C18247899
:104F6000C4545B1CF8E710BC704700000EB4C0B519
:104F7000024603A800210190009101AB01210448E1
:104F800078440C3001F058FA06BC5DF810FB00BF05
:104F90009333000080B5012201211748FEF79DFBE5
:104FA00000211648FEF778FC01BD10B50400200072
:104FB000C0B2002805D1012240211148FEF78DFB27
:104FC00004E0002240210E48FEF787FB0022012169
:104FD0000948FEF782FB00210848FEF731FC10BDAE
:104FE00080B5012201210448FEF777FB0021034828
:104FF000FEF752FC01BD00000010024084020020B8
:105000000004024070B5040000F0ACF90500260071
:1050100016F1010F02D004480078361800F0A2F90A
:10502000401BB042FAD370BDE800002080B50020DC
:105030000090DFF8E802006850F48040DFF8DC12EE
:105040000860DFF8D802006810F4804000900098F3
:1050500000200090DFF8C802006850F08050DFF8B0
:10506000C0120860DFF8B802006810F080500090AD
:105070000098052000F020FD01BD10B586B00400A9
:1050800001A81421FFF712FB2068DFF8981288426C
:105090002BD100200090DFF88402006850F480706B
:1050A000DFF878120860DFF87402006810F480708E
:1050B0000090009800200090DFF86C02006850F02B
:1050C0000100DFF864120860DFF85C02006810F08D
:1050D000010000900098022001900320029000201F
:1050E000039001A99148FEF725F906B010BD81B0E3
:1050F00001688F4A91420ED10021009187490968C9
:1051000051F00101854A11608449096811F00101DB
:10511000009100994AE00168864A91420ED100212F
:1051200000917F49096851F002017D4A11607C4974
:10513000096811F002010091009937E001687E4A88
:1051400091420ED1002100917549096851F010017A
:10515000734A11607249096811F0100100910099B9
:1051600024E00168754A91420ED1002100916C49FA
:10517000096851F020016A4A11606949096811F013
:1051800020010091009911E001686D4A91420DD112
:10519000002100916149096851F400315F4A1160B2
:1051A0005E49096811F400310091009901B070471F
:1051B00010B586B0040068461421FFF777FA20681E
:1051C0005B4988422CD1002005905748006850F078
:1051D0001000554908605448006810F01000059010
:1051E00005984FF4A06000900220019000200290EA
:1051F000002003900120049069465248FEF79AF877
:105200004FF42060009002200190002002900320C3
:1052100003900120049069464A48FEF78BF842E06B
:105220002068444988421DD1002005903E4800680E
:1052300050F004003C4908603B48006810F004004E
:10524000059005984FF4E070009002200190002036
:105250000290002003900220049069463A48FEF72D
:1052600069F820E02068364988421CD1002005906A
:105270002D48006850F002002B4908602A48006859
:1052800010F00200059005984FF480700090022005
:1052900001900020029000200390032004906946B2
:1052A0002A48FEF747F806B010BD10B586B00400D6
:1052B00001A81421FFF7FAF92068254988422AD16C
:1052C000002000901548006850F010001349086055
:1052D0001248006810F01000009000980020009024
:1052E0001148006850F001000F4908600E4800683E
:1052F00010F00100009000984FF4C060019002206F
:10530000029001200390032004900720059001A93A
:105310000648FEF70FF806B010BD00004438024002
:105320004038024000200140303802400000024076
:105330000000014000040040001000400014004044
:1053400000440140001002400008024000040240F6
:1053500000100140704770477047704770477047B2
:105360007047000001480068704700BF50030020EC
:1053700000B500BF130096469446103928BFA0E838
:105380000C50FAD85FEA417C28BF0CC048BF40F8F7
:10539000042BC90728BF20F8022B48BF00F8012BB7
:1053A00000BD000080B50E48006850F400700C4944
:1053B00008600B48006850F480600949086008489C
:1053C000006850F4807006490860032000F074FB08
:1053D000002001F0FDFFFFF729FE002002BD0000C4
:1053E000003C02407CB50400002C01D10120C3E147
:1053F0002078C0076ED5DFF88403006810F00C0039
:1054000004280BD0DFF87403006810F00C000828A3
:105410000ED1DFF86C030068400209D5DFF86403A1
:105420000068800356D56068002853D10120A3E1AD
:105430006068B0F5803F08D1DFF84803006850F499
:105440008030DFF84013086024E06068B0F5A02FDA
:1054500010D1DFF83003006850F48020DFF8241307
:105460000860DFF82003006850F48030DFF8141380
:1054700008600FE0DFF80C03006830F48030DFF8DC
:1054800004130860DFF8FC02006830F48020DFF8C5
:10549000F4120860606800280ED0FFF763FF050073
:1054A000DFF8E0020068800314D4FFF75BFF401BC5
:1054B0006528F5D303205FE1FFF754FF0500B148ED
:1054C0000068800306D5FFF74DFF401B6528F6D323
:1054D000032051E12078800750D5A848006810F0DB
:1054E0000C0F09D0A548006810F00C00082816D150
:1054F000A3480068400212D4A2480068800704D57F
:10550000E068012801D0012036E19E48006830F0B3
:10551000F800216950EAC1009A4908602EE0E0686D
:1055200000281AD0012098490860FFF71BFF0500EA
:1055300094480068800706D4FFF714FF401B032837
:10554000F6D3032018E18F48006830F0F800216995
:1055500050EAC1008B49086010E000208A490860C9
:10556000FFF700FF050087480068800706D5FFF7B2
:10557000F9FE401B0328F6D30320FDE02078000746
:1055800024D56069002810D0012080490860FFF709
:10559000E9FE05007E480068800717D4FFF7E2FEA9
:1055A000401B0328F6D30320E6E00020774908607B
:1055B000FFF7D8FE050076480068800706D5FFF79C
:1055C000D1FE401B0328F6D30320D5E02078400706
:1055D00040F1808000266F480068C0000FD4002092
:1055E00000906C48006850F080506A490860694833
:1055F000006810F080500090009801200600664876
:105600000068C00513D46448006850F48070624993
:105610000860FFF7A7FE05005F480068C00506D4D4
:10562000FFF7A0FE401B0328F6D30320A4E0A068E8
:10563000012806D15948006850F001005749086018
:105640001BE0A06805280CD15448006850F0040005
:10565000524908605148006850F001004F49086005
:105660000BE04E480068400840004C4908604B4839
:10567000006830F0040049490860A06800280FD095
:10568000FFF770FE050045480068800718D4FFF753
:1056900069FE401B41F289318842F4D303206BE05C
:1056A000FFF760FE05003D480068800708D5FFF75A
:1056B00059FE401B41F289318842F4D303205BE05C
:1056C0003000C0B2012805D13248006830F0805067
:1056D00030490860A06900284DD02848006810F0C3
:1056E0000C00082845D0A069022831D100202C499F
:1056F0000860FFF737FE060022480068800106D5E3
:10570000FFF730FE801B0328F6D3032034E0E16965
:10571000206A0143606A51EA8011A06A4008401E75
:1057200051EA0041E06A51EA006115480160012038
:105730001B490860FFF716FE05001248006880014B
:1057400019D4FFF70FFE401B0328F6D3032013E004
:10575000002013490860FFF705FE050009480068AE
:10576000800108D5FFF7FEFD401B0328F6D3032078
:1057700002E0012000E0002076BD00BF08380240B2
:10578000043802400038024000004742800E474281
:1057900074380240403802400070004070380240C7
:1057A0006000474270B504000D00002C01D10120BB
:1057B0009CE05B48006810F00F00A84209D25848EE
:1057C00005705748006810F00F00A84201D0012072
:1057D0008CE02078800719D52078400705D55148FE
:1057E000006850F4E0504F4908602078000705D564
:1057F0004C48006850F460404A49086049480168D4
:1058000031F0F001A0680143464801602078C007EC
:1058100036D56068012805D143480068800313D459
:10582000012063E06068022802D06068032805D187
:105830003D480068800107D4012057E03A480068DD
:10584000800701D4012051E03648016889088900A9
:105850006068014333480160FFF784FD060031486A
:10586000006810F00C006168B0EB810F08D0FFF702
:1058700079FD801B41F289318842F0D3032035E065
:105880002748006810F00F00854209D224480570AF
:105890002348006810F00F00A84201D0012025E045
:1058A0002078400707D51F48016831F4E051E068CF
:1058B00001431C4801602078000708D5194800689A
:1058C00030F46040216950EAC1001649086000F0D8
:1058D00033F81649134A1268C2F30312895CC840B0
:1058E00013490860002001F073FD002070BD1048CE
:1058F0000068704780B5FFF7FAFF0E49094A126841
:10590000C2F38222895CC84002BD80B5FFF7EFFF79
:105910000849044A1268C2F34232895CC84002BD99
:10592000003C024008380240003802408C830008E6
:1059300004000020D8830008F0B5002400250026CC
:1059400000271E48006810F00C00002804D004282E
:1059500004D0082804D02FE019482EE019482CE084
:105960001948006810F03F00040017480068400222
:105970000CD515480068C0F388101249A1FB00013E
:105980002200002301F04AFD05000BE00E480068EC
:10599000C0F388100A49A1FB00012200002301F096
:1059A0003DFD050008480068C0F30140401C400070
:1059B0000600B5FBF6F000E00148F0BD08380240F3
:1059C0000024F40000127A000438024010F00703AB
:1059D000DFF834110A684FF6FF010A40DFF82C1196
:1059E00051EA03210A43DFF820110A607047DFF80B
:1059F00018010068C0F302207047010049B2002975
:105A00000AD4012210F01F018A40DFF804110300BC
:105A10005BB25B0941F82320704710B4020052B218
:105A2000002A05D40A013B4B040064B21A5508E071
:105A30000A01394B040064B214F00F04234403F844
:105A4000042C10BC704770B4030013F00704D4F1A9
:105A50000700052801D3042001E0D4F10700251D2B
:105A6000072D01D2002500E0E51E012616FA00F000
:105A7000401E0140A940012010FA05F56D1E2A4084
:105A80001143080070BC704710B50400601EB0F1EF
:105A9000807F01D301200EE0601E204908600F21A5
:105AA0005FF0FF30FFF7B9FF00201D4908600720B5
:105AB0001C490860002010BD10B504002000FFF74D
:105AC00085FF10BD2DE9F04104000D0016000027F0
:105AD000FFF78DFF8046320029004046FFF7B3FFF5
